{
  "contractName": "Test",
  "abi": [
    {
      "constant": false,
      "inputs": [
        {
          "name": "a",
          "type": "uint256"
        }
      ],
      "name": "multiply",
      "outputs": [
        {
          "name": "d",
          "type": "uint256"
        }
      ],
      "payable": false,
      "stateMutability": "nonpayable",
      "type": "function"
    }
  ],
  "bytecode": "0x608060405234801561001057600080fd5b5060bb8061001f6000396000f300608060405260043610603f576000357c0100000000000000000000000000000000000000000000000000000000900463ffffffff168063c6888fa1146044575b600080fd5b348015604f57600080fd5b50606c600480360381019080803590602001909291905050506082565b6040518082815260200191505060405180910390f35b60006007820290509190505600a165627a7a72305820a3af4f86d962346ce5078e1630aee4a72bd8238e056a3e59209978a2d9faf1d40029",
  "source": "pragma solidity ^0.4.2;\ncontract Test { \n\tfunction multiply(uint a) returns(uint d) { \n\t\treturn a * 7; \n\t}\n}\n",
  "sourcePath": "/root/test3/contracts/Test.sol",
  "compiler": {
    "name": "solc",
    "version": "0.4.23+commit.124ca40d.Emscripten.clang"
  },
  "schemaVersion": "2.0.0",
  "updatedAt": "2018-05-16T17:19:22.705Z"
}